{
  "contractName": "Pizza",
  "abi": [
    {
      "inputs": [
        {
          "internalType": "uint256",
          "name": "_pizzaSize",
          "type": "uint256"
        }
      ],
      "stateMutability": "nonpayable",
      "type": "constructor"
    },
    {
      "inputs": [],
      "name": "PIZZA_SIZE",
      "outputs": [
        {
          "internalType": "uint256",
          "name": "",
          "type": "uint256"
        }
      ],
      "stateMutability": "view",
      "type": "function",
      "constant": true
    },
    {
      "inputs": [],
      "name": "slices",
      "outputs": [
        {
          "internalType": "uint256",
          "name": "",
          "type": "uint256"
        }
      ],
      "stateMutability": "view",
      "type": "function",
      "constant": true
    },
    {
      "inputs": [],
      "name": "eatSlice",
      "outputs": [],
      "stateMutability": "nonpayable",
      "type": "function"
    },
    {
      "inputs": [],
      "name": "bakeNewPizza",
      "outputs": [],
      "stateMutability": "nonpayable",
      "type": "function"
    }
  ],
  "bytecode": "0x608060405234801561001057600080fd5b506040516104e13803806104e18339818101604052810190610032919061009d565b8060008190555060006001819055506000546001600082825461005591906100f9565b925050819055505061012d565b600080fd5b6000819050919050565b61007a81610067565b811461008557600080fd5b50565b60008151905061009781610071565b92915050565b6000602082840312156100b3576100b2610062565b5b60006100c184828501610088565b91505092915050565b7f4e487b7100000000000000000000000000000000000000000000000000000000600052601160045260246000fd5b600061010482610067565b915061010f83610067565b9250828201905080821115610127576101266100ca565b5b92915050565b6103a58061013c6000396000f3fe608060405234801561001057600080fd5b506004361061004c5760003560e01c806308329585146100515780635e723cff1461005b578063a63b6cde14610065578063f5aae2fd14610083575b600080fd5b6100596100a1565b005b610063610101565b005b61006d610163565b60405161007a9190610188565b60405180910390f35b61008b610169565b6040516100989190610188565b60405180910390f35b6000600154116100e6576040517f08c379a00000000000000000000000000000000000000000000000000000000081526004016100dd90610226565b60405180910390fd5b60018060008282546100f89190610275565b92505081905550565b600060015414610146576040517f08c379a000000000000000000000000000000000000000000000000000000000815260040161013d9061031b565b60405180910390fd5b6000546001600082825461015a919061033b565b92505081905550565b60015481565b60005481565b6000819050919050565b6101828161016f565b82525050565b600060208201905061019d6000830184610179565b92915050565b600082825260208201905092915050565b7f4e6f20536c69636573204c6566742e204c6574732042616b652061206e65772060008201527f50697a7a61210000000000000000000000000000000000000000000000000000602082015250565b60006102106026836101a3565b915061021b826101b4565b604082019050919050565b6000602082019050818103600083015261023f81610203565b9050919050565b7f4e487b7100000000000000000000000000000000000000000000000000000000600052601160045260246000fd5b60006102808261016f565b915061028b8361016f565b92508282039050818111156102a3576102a2610246565b5b92915050565b7f5468657265207374696c6c20736c696365732066726f6d20612070726576696f60008201527f75732050697a7a61210000000000000000000000000000000000000000000000602082015250565b60006103056029836101a3565b9150610310826102a9565b604082019050919050565b60006020820190508181036000830152610334816102f8565b9050919050565b60006103468261016f565b91506103518361016f565b925082820190508082111561036957610368610246565b5b9291505056fea2646970667358221220c24cc6af3a74ba5176fd69cb787077601377d1b9679511732eaaea10d7dec0db64736f6c63430008100033",
  "immutableReferences": {},
  "source": "// SPDX-License-Identifier: MIT\npragma solidity ^0.8.16;\n\ncontract Pizza {\n    uint256 public PIZZA_SIZE;\n    uint256 public slices;\n\n    constructor(uint256 _pizzaSize) {\n        PIZZA_SIZE = _pizzaSize;\n        slices = 0;\n        slices += PIZZA_SIZE;\n    }\n\n    function eatSlice() public {\n        require(slices > 0, \"No Slices Left. Lets Bake a new Pizza!\");\n        slices -= 1;\n    }\n\n    function bakeNewPizza() public {\n        require(slices == 0, \"There still slices from a previous Pizza!\");\n        slices += PIZZA_SIZE;\n    }\n}",
  "sourcePath": "/home/taurinos/xdc_comm/docs/how-to/Pizza/contracts/Pizza.sol",
  "compiler": {
    "name": "solc",
    "version": "0.8.16+commit.07a7930e.Emscripten.clang"
  },
  "schemaVersion": "3.4.9",
  "updatedAt": "2022-09-13T23:34:47.215Z",
  "networkType": "ethereum",
  "devdoc": {
    "kind": "dev",
    "methods": {},
    "version": 1
  },
  "userdoc": {
    "kind": "user",
    "methods": {},
    "version": 1
  }
}