{
  "contractName": "EggNFT",
  "abi": [
    {
      "inputs": [
        {
          "internalType": "contract ERC20",
          "name": "_paymentCurrency",
          "type": "address"
        }
      ],
      "stateMutability": "nonpayable",
      "type": "constructor"
    },
    {
      "anonymous": false,
      "inputs": [
        {
          "indexed": true,
          "internalType": "address",
          "name": "owner",
          "type": "address"
        },
        {
          "indexed": true,
          "internalType": "address",
          "name": "approved",
          "type": "address"
        },
        {
          "indexed": true,
          "internalType": "uint256",
          "name": "tokenId",
          "type": "uint256"
        }
      ],
      "name": "Approval",
      "type": "event"
    },
    {
      "anonymous": false,
      "inputs": [
        {
          "indexed": true,
          "internalType": "address",
          "name": "owner",
          "type": "address"
        },
        {
          "indexed": true,
          "internalType": "address",
          "name": "operator",
          "type": "address"
        },
        {
          "indexed": false,
          "internalType": "bool",
          "name": "approved",
          "type": "bool"
        }
      ],
      "name": "ApprovalForAll",
      "type": "event"
    },
    {
      "anonymous": false,
      "inputs": [
        {
          "indexed": true,
          "internalType": "address",
          "name": "previousOwner",
          "type": "address"
        },
        {
          "indexed": true,
          "internalType": "address",
          "name": "newOwner",
          "type": "address"
        }
      ],
      "name": "OwnershipTransferred",
      "type": "event"
    },
    {
      "anonymous": false,
      "inputs": [
        {
          "indexed": true,
          "internalType": "address",
          "name": "from",
          "type": "address"
        },
        {
          "indexed": true,
          "internalType": "address",
          "name": "to",
          "type": "address"
        },
        {
          "indexed": true,
          "internalType": "uint256",
          "name": "tokenId",
          "type": "uint256"
        }
      ],
      "name": "Transfer",
      "type": "event"
    },
    {
      "inputs": [
        {
          "internalType": "address",
          "name": "to",
          "type": "address"
        },
        {
          "internalType": "uint256",
          "name": "tokenId",
          "type": "uint256"
        }
      ],
      "name": "approve",
      "outputs": [],
      "stateMutability": "nonpayable",
      "type": "function"
    },
    {
      "inputs": [
        {
          "internalType": "address",
          "name": "owner",
          "type": "address"
        }
      ],
      "name": "balanceOf",
      "outputs": [
        {
          "internalType": "uint256",
          "name": "",
          "type": "uint256"
        }
      ],
      "stateMutability": "view",
      "type": "function"
    },
    {
      "inputs": [
        {
          "internalType": "uint256",
          "name": "tokenId",
          "type": "uint256"
        }
      ],
      "name": "getApproved",
      "outputs": [
        {
          "internalType": "address",
          "name": "",
          "type": "address"
        }
      ],
      "stateMutability": "view",
      "type": "function"
    },
    {
      "inputs": [
        {
          "internalType": "address",
          "name": "owner",
          "type": "address"
        },
        {
          "internalType": "address",
          "name": "operator",
          "type": "address"
        }
      ],
      "name": "isApprovedForAll",
      "outputs": [
        {
          "internalType": "bool",
          "name": "",
          "type": "bool"
        }
      ],
      "stateMutability": "view",
      "type": "function"
    },
    {
      "inputs": [],
      "name": "name",
      "outputs": [
        {
          "internalType": "string",
          "name": "",
          "type": "string"
        }
      ],
      "stateMutability": "view",
      "type": "function"
    },
    {
      "inputs": [],
      "name": "owner",
      "outputs": [
        {
          "internalType": "address",
          "name": "",
          "type": "address"
        }
      ],
      "stateMutability": "view",
      "type": "function"
    },
    {
      "inputs": [
        {
          "internalType": "uint256",
          "name": "tokenId",
          "type": "uint256"
        }
      ],
      "name": "ownerOf",
      "outputs": [
        {
          "internalType": "address",
          "name": "",
          "type": "address"
        }
      ],
      "stateMutability": "view",
      "type": "function"
    },
    {
      "inputs": [],
      "name": "paymentCurrency",
      "outputs": [
        {
          "internalType": "contract ERC20",
          "name": "",
          "type": "address"
        }
      ],
      "stateMutability": "view",
      "type": "function"
    },
    {
      "inputs": [],
      "name": "renounceOwnership",
      "outputs": [],
      "stateMutability": "nonpayable",
      "type": "function"
    },
    {
      "inputs": [
        {
          "internalType": "address",
          "name": "from",
          "type": "address"
        },
        {
          "internalType": "address",
          "name": "to",
          "type": "address"
        },
        {
          "internalType": "uint256",
          "name": "tokenId",
          "type": "uint256"
        }
      ],
      "name": "safeTransferFrom",
      "outputs": [],
      "stateMutability": "nonpayable",
      "type": "function"
    },
    {
      "inputs": [
        {
          "internalType": "address",
          "name": "from",
          "type": "address"
        },
        {
          "internalType": "address",
          "name": "to",
          "type": "address"
        },
        {
          "internalType": "uint256",
          "name": "tokenId",
          "type": "uint256"
        },
        {
          "internalType": "bytes",
          "name": "data",
          "type": "bytes"
        }
      ],
      "name": "safeTransferFrom",
      "outputs": [],
      "stateMutability": "nonpayable",
      "type": "function"
    },
    {
      "inputs": [
        {
          "internalType": "address",
          "name": "operator",
          "type": "address"
        },
        {
          "internalType": "bool",
          "name": "approved",
          "type": "bool"
        }
      ],
      "name": "setApprovalForAll",
      "outputs": [],
      "stateMutability": "nonpayable",
      "type": "function"
    },
    {
      "inputs": [],
      "name": "symbol",
      "outputs": [
        {
          "internalType": "string",
          "name": "",
          "type": "string"
        }
      ],
      "stateMutability": "view",
      "type": "function"
    },
    {
      "inputs": [
        {
          "internalType": "uint256",
          "name": "index",
          "type": "uint256"
        }
      ],
      "name": "tokenByIndex",
      "outputs": [
        {
          "internalType": "uint256",
          "name": "",
          "type": "uint256"
        }
      ],
      "stateMutability": "view",
      "type": "function"
    },
    {
      "inputs": [
        {
          "internalType": "address",
          "name": "owner",
          "type": "address"
        },
        {
          "internalType": "uint256",
          "name": "index",
          "type": "uint256"
        }
      ],
      "name": "tokenOfOwnerByIndex",
      "outputs": [
        {
          "internalType": "uint256",
          "name": "",
          "type": "uint256"
        }
      ],
      "stateMutability": "view",
      "type": "function"
    },
    {
      "inputs": [],
      "name": "totalSupply",
      "outputs": [
        {
          "internalType": "uint256",
          "name": "",
          "type": "uint256"
        }
      ],
      "stateMutability": "view",
      "type": "function"
    },
    {
      "inputs": [
        {
          "internalType": "address",
          "name": "from",
          "type": "address"
        },
        {
          "internalType": "address",
          "name": "to",
          "type": "address"
        },
        {
          "internalType": "uint256",
          "name": "tokenId",
          "type": "uint256"
        }
      ],
      "name": "transferFrom",
      "outputs": [],
      "stateMutability": "nonpayable",
      "type": "function"
    },
    {
      "inputs": [
        {
          "internalType": "address",
          "name": "newOwner",
          "type": "address"
        }
      ],
      "name": "transferOwnership",
      "outputs": [],
      "stateMutability": "nonpayable",
      "type": "function"
    },
    {
      "inputs": [
        {
          "internalType": "address",
          "name": "to",
          "type": "address"
        },
        {
          "internalType": "string",
          "name": "uri",
          "type": "string"
        }
      ],
      "name": "safeMint",
      "outputs": [],
      "stateMutability": "nonpayable",
      "type": "function"
    },
    {
      "inputs": [],
      "name": "buyEgg",
      "outputs": [],
      "stateMutability": "nonpayable",
      "type": "function"
    },
    {
      "inputs": [
        {
          "internalType": "uint256",
          "name": "tokenId",
          "type": "uint256"
        }
      ],
      "name": "tokenURI",
      "outputs": [
        {
          "internalType": "string",
          "name": "",
          "type": "string"
        }
      ],
      "stateMutability": "view",
      "type": "function"
    },
    {
      "inputs": [
        {
          "internalType": "bytes4",
          "name": "interfaceId",
          "type": "bytes4"
        }
      ],
      "name": "supportsInterface",
      "outputs": [
        {
          "internalType": "bool",
          "name": "",
          "type": "bool"
        }
      ],
      "stateMutability": "view",
      "type": "function"
    }
  ],
  "bytecode": "0x60806040523480156200001157600080fd5b5060405162004239380380620042398339818101604052810190620000379190620002ef565b6040518060400160405280600781526020017f456767204e4654000000000000000000000000000000000000000000000000008152506040518060400160405280600481526020017f45474753000000000000000000000000000000000000000000000000000000008152508160009081620000b491906200059b565b508060019081620000c691906200059b565b505050620000e9620000dd620001a360201b60201c565b620001ab60201b60201c565b600073ffffffffffffffffffffffffffffffffffffffff168173ffffffffffffffffffffffffffffffffffffffff16036200015b576040517f08c379a0000000000000000000000000000000000000000000000000000000008152600401620001529062000709565b60405180910390fd5b80600d60006101000a81548173ffffffffffffffffffffffffffffffffffffffff021916908373ffffffffffffffffffffffffffffffffffffffff160217905550506200072b565b600033905090565b6000600b60009054906101000a900473ffffffffffffffffffffffffffffffffffffffff16905081600b60006101000a81548173ffffffffffffffffffffffffffffffffffffffff021916908373ffffffffffffffffffffffffffffffffffffffff1602179055508173ffffffffffffffffffffffffffffffffffffffff168173ffffffffffffffffffffffffffffffffffffffff167f8be0079c531659141344cd1fd0a4f28419497f9722a3daafe3b4186f6b6457e060405160405180910390a35050565b600080fd5b600073ffffffffffffffffffffffffffffffffffffffff82169050919050565b6000620002a38262000276565b9050919050565b6000620002b78262000296565b9050919050565b620002c981620002aa565b8114620002d557600080fd5b50565b600081519050620002e981620002be565b92915050565b60006020828403121562000308576200030762000271565b5b60006200031884828501620002d8565b91505092915050565b600081519050919050565b7f4e487b7100000000000000000000000000000000000000000000000000000000600052604160045260246000fd5b7f4e487b7100000000000000000000000000000000000000000000000000000000600052602260045260246000fd5b60006002820490506001821680620003a357607f821691505b602082108103620003b957620003b86200035b565b5b50919050565b60008190508160005260206000209050919050565b60006020601f8301049050919050565b600082821b905092915050565b600060088302620004237fffffffffffffffffffffffffffffffffffffffffffffffffffffffffffffffff82620003e4565b6200042f8683620003e4565b95508019841693508086168417925050509392505050565b6000819050919050565b6000819050919050565b60006200047c62000476620004708462000447565b62000451565b62000447565b9050919050565b6000819050919050565b62000498836200045b565b620004b0620004a78262000483565b848454620003f1565b825550505050565b600090565b620004c7620004b8565b620004d48184846200048d565b505050565b5b81811015620004fc57620004f0600082620004bd565b600181019050620004da565b5050565b601f8211156200054b576200051581620003bf565b6200052084620003d4565b8101602085101562000530578190505b620005486200053f85620003d4565b830182620004d9565b50505b505050565b600082821c905092915050565b6000620005706000198460080262000550565b1980831691505092915050565b60006200058b83836200055d565b9150826002028217905092915050565b620005a68262000321565b67ffffffffffffffff811115620005c257620005c16200032c565b5b620005ce82546200038a565b620005db82828562000500565b600060209050601f831160018114620006135760008415620005fe578287015190505b6200060a85826200057d565b8655506200067a565b601f1984166200062386620003bf565b60005b828110156200064d5784890151825560018201915060208501945060208101905062000626565b868310156200066d578489015162000669601f8916826200055d565b8355505b6001600288020188555050505b505050505050565b600082825260208201905092915050565b7f546f6b656e20616464726573732063616e27742062652061646472657373207a60008201527f65726f0000000000000000000000000000000000000000000000000000000000602082015250565b6000620006f160238362000682565b9150620006fe8262000693565b604082019050919050565b600060208201905081810360008301526200072481620006e2565b9050919050565b613afe806200073b6000396000f3fe608060405234801561001057600080fd5b50600436106101425760003560e01c806370a08231116100b8578063a22cb4651161007c578063a22cb46514610365578063b88d4fde14610381578063c87b56dd1461039d578063d204c45e146103cd578063e985e9c5146103e9578063f2fde38b1461041957610142565b806370a08231146102e5578063715018a6146103155780637d6355021461031f5780638da5cb5b1461032957806395d89b411461034757610142565b806323b872dd1161010a57806323b872dd146101ff5780632f745c591461021b5780633d15cc6d1461024b57806342842e0e146102695780634f6ccce7146102855780636352211e146102b557610142565b806301ffc9a71461014757806306fdde0314610177578063081812fc14610195578063095ea7b3146101c557806318160ddd146101e1575b600080fd5b610161600480360381019061015c91906122f9565b610435565b60405161016e9190612341565b60405180910390f35b61017f610447565b60405161018c91906123ec565b60405180910390f35b6101af60048036038101906101aa9190612444565b6104d9565b6040516101bc91906124b2565b60405180910390f35b6101df60048036038101906101da91906124f9565b61051f565b005b6101e9610636565b6040516101f69190612548565b60405180910390f35b61021960048036038101906102149190612563565b610643565b005b610235600480360381019061023091906124f9565b6106a3565b6040516102429190612548565b60405180910390f35b610253610748565b6040516102609190612615565b60405180910390f35b610283600480360381019061027e9190612563565b61076e565b005b61029f600480360381019061029a9190612444565b61078e565b6040516102ac9190612548565b60405180910390f35b6102cf60048036038101906102ca9190612444565b6107ff565b6040516102dc91906124b2565b60405180910390f35b6102ff60048036038101906102fa9190612630565b6108b0565b60405161030c9190612548565b60405180910390f35b61031d610967565b005b61032761097b565b005b610331610aba565b60405161033e91906124b2565b60405180910390f35b61034f610ae4565b60405161035c91906123ec565b60405180910390f35b61037f600480360381019061037a9190612689565b610b76565b005b61039b600480360381019061039691906127fe565b610b8c565b005b6103b760048036038101906103b29190612444565b610bee565b6040516103c491906123ec565b60405180910390f35b6103e760048036038101906103e29190612922565b610c48565b005b61040360048036038101906103fe919061297e565b610c81565b6040516104109190612341565b60405180910390f35b610433600480360381019061042e9190612630565b610d15565b005b600061044082610d98565b9050919050565b606060008054610456906129ed565b80601f0160208091040260200160405190810160405280929190818152602001828054610482906129ed565b80156104cf5780601f106104a4576101008083540402835291602001916104cf565b820191906000526020600020905b8154815290600101906020018083116104b257829003601f168201915b5050505050905090565b60006104e482610e12565b6004600083815260200190815260200160002060009054906101000a900473ffffffffffffffffffffffffffffffffffffffff169050919050565b600061052a826107ff565b90508073ffffffffffffffffffffffffffffffffffffffff168373ffffffffffffffffffffffffffffffffffffffff160361059a576040517f08c379a000000000000000000000000000000000000000000000000000000000815260040161059190612a90565b60405180910390fd5b8073ffffffffffffffffffffffffffffffffffffffff166105b9610e5d565b73ffffffffffffffffffffffffffffffffffffffff1614806105e857506105e7816105e2610e5d565b610c81565b5b610627576040517f08c379a000000000000000000000000000000000000000000000000000000000815260040161061e90612b22565b60405180910390fd5b6106318383610e65565b505050565b6000600880549050905090565b61065461064e610e5d565b82610f1e565b610693576040517f08c379a000000000000000000000000000000000000000000000000000000000815260040161068a90612bb4565b60405180910390fd5b61069e838383610fb3565b505050565b60006106ae836108b0565b82106106ef576040517f08c379a00000000000000000000000000000000000000000000000000000000081526004016106e690612c46565b60405180910390fd5b600660008473ffffffffffffffffffffffffffffffffffffffff1673ffffffffffffffffffffffffffffffffffffffff168152602001908152602001600020600083815260200190815260200160002054905092915050565b600d60009054906101000a900473ffffffffffffffffffffffffffffffffffffffff1681565b61078983838360405180602001604052806000815250610b8c565b505050565b6000610798610636565b82106107d9576040517f08c379a00000000000000000000000000000000000000000000000000000000081526004016107d090612cd8565b60405180910390fd5b600882815481106107ed576107ec612cf8565b5b90600052602060002001549050919050565b6000806002600084815260200190815260200160002060009054906101000a900473ffffffffffffffffffffffffffffffffffffffff169050600073ffffffffffffffffffffffffffffffffffffffff168173ffffffffffffffffffffffffffffffffffffffff16036108a7576040517f08c379a000000000000000000000000000000000000000000000000000000000815260040161089e90612d73565b60405180910390fd5b80915050919050565b60008073ffffffffffffffffffffffffffffffffffffffff168273ffffffffffffffffffffffffffffffffffffffff1603610920576040517f08c379a000000000000000000000000000000000000000000000000000000000815260040161091790612e05565b60405180910390fd5b600360008373ffffffffffffffffffffffffffffffffffffffff1673ffffffffffffffffffffffffffffffffffffffff168152602001908152602001600020549050919050565b61096f611219565b6109796000611297565b565b600d60009054906101000a900473ffffffffffffffffffffffffffffffffffffffff1673ffffffffffffffffffffffffffffffffffffffff166323b872dd3330678ac7230489e800006040518463ffffffff1660e01b81526004016109e293929190612e60565b6020604051808303816000875af1158015610a01573d6000803e3d6000fd5b505050506040513d601f19601f82011682018060405250810190610a259190612eac565b610a64576040517f08c379a0000000000000000000000000000000000000000000000000000000008152600401610a5b90612f25565b60405180910390fd5b6000610a70600c61135d565b9050610a7c600c61136b565b610a863382611381565b610ab781610a938361139f565b604051602001610aa39190613065565b6040516020818303038152906040526114ff565b50565b6000600b60009054906101000a900473ffffffffffffffffffffffffffffffffffffffff16905090565b606060018054610af3906129ed565b80601f0160208091040260200160405190810160405280929190818152602001828054610b1f906129ed565b8015610b6c5780601f10610b4157610100808354040283529160200191610b6c565b820191906000526020600020905b815481529060010190602001808311610b4f57829003601f168201915b5050505050905090565b610b88610b81610e5d565b838361156c565b5050565b610b9d610b97610e5d565b83610f1e565b610bdc576040517f08c379a0000000000000000000000000000000000000000000000000000000008152600401610bd390612bb4565b60405180910390fd5b610be8848484846116d8565b50505050565b6060610bf982611734565b610c38576040517f08c379a0000000000000000000000000000000000000000000000000000000008152600401610c2f90613104565b60405180910390fd5b610c41826117a0565b9050919050565b610c50611219565b6000610c5c600c61135d565b9050610c68600c61136b565b610c728382611381565b610c7c81836114ff565b505050565b6000600560008473ffffffffffffffffffffffffffffffffffffffff1673ffffffffffffffffffffffffffffffffffffffff16815260200190815260200160002060008373ffffffffffffffffffffffffffffffffffffffff1673ffffffffffffffffffffffffffffffffffffffff16815260200190815260200160002060009054906101000a900460ff16905092915050565b610d1d611219565b600073ffffffffffffffffffffffffffffffffffffffff168173ffffffffffffffffffffffffffffffffffffffff1603610d8c576040517f08c379a0000000000000000000000000000000000000000000000000000000008152600401610d8390613196565b60405180910390fd5b610d9581611297565b50565b60007f780e9d63000000000000000000000000000000000000000000000000000000007bffffffffffffffffffffffffffffffffffffffffffffffffffffffff1916827bffffffffffffffffffffffffffffffffffffffffffffffffffffffff19161480610e0b5750610e0a826118b2565b5b9050919050565b610e1b81611734565b610e5a576040517f08c379a0000000000000000000000000000000000000000000000000000000008152600401610e5190612d73565b60405180910390fd5b50565b600033905090565b816004600083815260200190815260200160002060006101000a81548173ffffffffffffffffffffffffffffffffffffffff021916908373ffffffffffffffffffffffffffffffffffffffff160217905550808273ffffffffffffffffffffffffffffffffffffffff16610ed8836107ff565b73ffffffffffffffffffffffffffffffffffffffff167f8c5be1e5ebec7d5bd14f71427d1e84f3dd0314c0f7b2291e5b200ac8c7c3b92560405160405180910390a45050565b600080610f2a836107ff565b90508073ffffffffffffffffffffffffffffffffffffffff168473ffffffffffffffffffffffffffffffffffffffff161480610f6c5750610f6b8185610c81565b5b80610faa57508373ffffffffffffffffffffffffffffffffffffffff16610f92846104d9565b73ffffffffffffffffffffffffffffffffffffffff16145b91505092915050565b8273ffffffffffffffffffffffffffffffffffffffff16610fd3826107ff565b73ffffffffffffffffffffffffffffffffffffffff1614611029576040517f08c379a000000000000000000000000000000000000000000000000000000000815260040161102090613228565b60405180910390fd5b600073ffffffffffffffffffffffffffffffffffffffff168273ffffffffffffffffffffffffffffffffffffffff1603611098576040517f08c379a000000000000000000000000000000000000000000000000000000000815260040161108f906132ba565b60405180910390fd5b6110a3838383611994565b6110ae600082610e65565b6001600360008573ffffffffffffffffffffffffffffffffffffffff1673ffffffffffffffffffffffffffffffffffffffff16815260200190815260200160002060008282546110fe9190613309565b925050819055506001600360008473ffffffffffffffffffffffffffffffffffffffff1673ffffffffffffffffffffffffffffffffffffffff1681526020019081526020016000206000828254611155919061333d565b92505081905550816002600083815260200190815260200160002060006101000a81548173ffffffffffffffffffffffffffffffffffffffff021916908373ffffffffffffffffffffffffffffffffffffffff160217905550808273ffffffffffffffffffffffffffffffffffffffff168473ffffffffffffffffffffffffffffffffffffffff167fddf252ad1be2c89b69c2b068fc378daa952ba7f163c4a11628f55a4df523b3ef60405160405180910390a46112148383836119a4565b505050565b611221610e5d565b73ffffffffffffffffffffffffffffffffffffffff1661123f610aba565b73ffffffffffffffffffffffffffffffffffffffff1614611295576040517f08c379a000000000000000000000000000000000000000000000000000000000815260040161128c906133bd565b60405180910390fd5b565b6000600b60009054906101000a900473ffffffffffffffffffffffffffffffffffffffff16905081600b60006101000a81548173ffffffffffffffffffffffffffffffffffffffff021916908373ffffffffffffffffffffffffffffffffffffffff1602179055508173ffffffffffffffffffffffffffffffffffffffff168173ffffffffffffffffffffffffffffffffffffffff167f8be0079c531659141344cd1fd0a4f28419497f9722a3daafe3b4186f6b6457e060405160405180910390a35050565b600081600001549050919050565b6001816000016000828254019250508190555050565b61139b8282604051806020016040528060008152506119a9565b5050565b6060600082036113e6576040518060400160405280600181526020017f300000000000000000000000000000000000000000000000000000000000000081525090506114fa565b600082905060005b60008214611418578080611401906133dd565b915050600a826114119190613454565b91506113ee565b60008167ffffffffffffffff811115611434576114336126d3565b5b6040519080825280601f01601f1916602001820160405280156114665781602001600182028036833780820191505090505b5090505b600085146114f35760018261147f9190613309565b9150600a8561148e9190613485565b603061149a919061333d565b60f81b8183815181106114b0576114af612cf8565b5b60200101907effffffffffffffffffffffffffffffffffffffffffffffffffffffffffffff1916908160001a905350600a856114ec9190613454565b945061146a565b8093505050505b919050565b61150882611734565b611547576040517f08c379a000000000000000000000000000000000000000000000000000000000815260040161153e90613528565b60405180910390fd5b80600a6000848152602001908152602001600020908161156791906136ea565b505050565b8173ffffffffffffffffffffffffffffffffffffffff168373ffffffffffffffffffffffffffffffffffffffff16036115da576040517f08c379a00000000000000000000000000000000000000000000000000000000081526004016115d190613808565b60405180910390fd5b80600560008573ffffffffffffffffffffffffffffffffffffffff1673ffffffffffffffffffffffffffffffffffffffff16815260200190815260200160002060008473ffffffffffffffffffffffffffffffffffffffff1673ffffffffffffffffffffffffffffffffffffffff16815260200190815260200160002060006101000a81548160ff0219169083151502179055508173ffffffffffffffffffffffffffffffffffffffff168373ffffffffffffffffffffffffffffffffffffffff167f17307eab39ab6107e8899845ad3d59bd9653f200f220920489ca2b5937696c31836040516116cb9190612341565b60405180910390a3505050565b6116e3848484610fb3565b6116ef84848484611a04565b61172e576040517f08c379a00000000000000000000000000000000000000000000000000000000081526004016117259061389a565b60405180910390fd5b50505050565b60008073ffffffffffffffffffffffffffffffffffffffff166002600084815260200190815260200160002060009054906101000a900473ffffffffffffffffffffffffffffffffffffffff1673ffffffffffffffffffffffffffffffffffffffff1614159050919050565b60606117ab82610e12565b6000600a600084815260200190815260200160002080546117cb906129ed565b80601f01602080910402602001604051908101604052809291908181526020018280546117f7906129ed565b80156118445780601f1061181957610100808354040283529160200191611844565b820191906000526020600020905b81548152906001019060200180831161182757829003601f168201915b505050505090506000611855611b8b565b9050600081510361186a5781925050506118ad565b60008251111561189f5780826040516020016118879291906138ba565b604051602081830303815290604052925050506118ad565b6118a884611ba2565b925050505b919050565b60007f80ac58cd000000000000000000000000000000000000000000000000000000007bffffffffffffffffffffffffffffffffffffffffffffffffffffffff1916827bffffffffffffffffffffffffffffffffffffffffffffffffffffffff1916148061197d57507f5b5e139f000000000000000000000000000000000000000000000000000000007bffffffffffffffffffffffffffffffffffffffffffffffffffffffff1916827bffffffffffffffffffffffffffffffffffffffffffffffffffffffff1916145b8061198d575061198c82611c0a565b5b9050919050565b61199f838383611c74565b505050565b505050565b6119b38383611d86565b6119c06000848484611a04565b6119ff576040517f08c379a00000000000000000000000000000000000000000000000000000000081526004016119f69061389a565b60405180910390fd5b505050565b6000611a258473ffffffffffffffffffffffffffffffffffffffff16611f5f565b15611b7e578373ffffffffffffffffffffffffffffffffffffffff1663150b7a02611a4e610e5d565b8786866040518563ffffffff1660e01b8152600401611a709493929190613933565b6020604051808303816000875af1925050508015611aac57506040513d601f19601f82011682018060405250810190611aa99190613994565b60015b611b2e573d8060008114611adc576040519150601f19603f3d011682016040523d82523d6000602084013e611ae1565b606091505b506000815103611b26576040517f08c379a0000000000000000000000000000000000000000000000000000000008152600401611b1d9061389a565b60405180910390fd5b805181602001fd5b63150b7a0260e01b7bffffffffffffffffffffffffffffffffffffffffffffffffffffffff1916817bffffffffffffffffffffffffffffffffffffffffffffffffffffffff191614915050611b83565b600190505b949350505050565b606060405180602001604052806000815250905090565b6060611bad82610e12565b6000611bb7611b8b565b90506000815111611bd75760405180602001604052806000815250611c02565b80611be18461139f565b604051602001611bf29291906138ba565b6040516020818303038152906040525b915050919050565b60007f01ffc9a7000000000000000000000000000000000000000000000000000000007bffffffffffffffffffffffffffffffffffffffffffffffffffffffff1916827bffffffffffffffffffffffffffffffffffffffffffffffffffffffff1916149050919050565b611c7f838383611f82565b600073ffffffffffffffffffffffffffffffffffffffff168373ffffffffffffffffffffffffffffffffffffffff1603611cc157611cbc81611f87565b611d00565b8173ffffffffffffffffffffffffffffffffffffffff168373ffffffffffffffffffffffffffffffffffffffff1614611cff57611cfe8382611fd0565b5b5b600073ffffffffffffffffffffffffffffffffffffffff168273ffffffffffffffffffffffffffffffffffffffff1603611d4257611d3d8161213d565b611d81565b8273ffffffffffffffffffffffffffffffffffffffff168273ffffffffffffffffffffffffffffffffffffffff1614611d8057611d7f828261220e565b5b5b505050565b600073ffffffffffffffffffffffffffffffffffffffff168273ffffffffffffffffffffffffffffffffffffffff1603611df5576040517f08c379a0000000000000000000000000000000000000000000000000000000008152600401611dec90613a0d565b60405180910390fd5b611dfe81611734565b15611e3e576040517f08c379a0000000000000000000000000000000000000000000000000000000008152600401611e3590613a79565b60405180910390fd5b611e4a60008383611994565b6001600360008473ffffffffffffffffffffffffffffffffffffffff1673ffffffffffffffffffffffffffffffffffffffff1681526020019081526020016000206000828254611e9a919061333d565b92505081905550816002600083815260200190815260200160002060006101000a81548173ffffffffffffffffffffffffffffffffffffffff021916908373ffffffffffffffffffffffffffffffffffffffff160217905550808273ffffffffffffffffffffffffffffffffffffffff16600073ffffffffffffffffffffffffffffffffffffffff167fddf252ad1be2c89b69c2b068fc378daa952ba7f163c4a11628f55a4df523b3ef60405160405180910390a4611f5b600083836119a4565b5050565b6000808273ffffffffffffffffffffffffffffffffffffffff163b119050919050565b505050565b6008805490506009600083815260200190815260200160002081905550600881908060018154018082558091505060019003906000526020600020016000909190919091505550565b60006001611fdd846108b0565b611fe79190613309565b90506000600760008481526020019081526020016000205490508181146120cc576000600660008673ffffffffffffffffffffffffffffffffffffffff1673ffffffffffffffffffffffffffffffffffffffff168152602001908152602001600020600084815260200190815260200160002054905080600660008773ffffffffffffffffffffffffffffffffffffffff1673ffffffffffffffffffffffffffffffffffffffff168152602001908152602001600020600084815260200190815260200160002081905550816007600083815260200190815260200160002081905550505b6007600084815260200190815260200160002060009055600660008573ffffffffffffffffffffffffffffffffffffffff1673ffffffffffffffffffffffffffffffffffffffff16815260200190815260200160002060008381526020019081526020016000206000905550505050565b600060016008805490506121519190613309565b905060006009600084815260200190815260200160002054905060006008838154811061218157612180612cf8565b5b9060005260206000200154905080600883815481106121a3576121a2612cf8565b5b9060005260206000200181905550816009600083815260200190815260200160002081905550600960008581526020019081526020016000206000905560088054806121f2576121f1613a99565b5b6001900381819060005260206000200160009055905550505050565b6000612219836108b0565b905081600660008573ffffffffffffffffffffffffffffffffffffffff1673ffffffffffffffffffffffffffffffffffffffff168152602001908152602001600020600083815260200190815260200160002081905550806007600084815260200190815260200160002081905550505050565b6000604051905090565b600080fd5b600080fd5b60007fffffffff0000000000000000000000000000000000000000000000000000000082169050919050565b6122d6816122a1565b81146122e157600080fd5b50565b6000813590506122f3816122cd565b92915050565b60006020828403121561230f5761230e612297565b5b600061231d848285016122e4565b91505092915050565b60008115159050919050565b61233b81612326565b82525050565b60006020820190506123566000830184612332565b92915050565b600081519050919050565b600082825260208201905092915050565b60005b8381101561239657808201518184015260208101905061237b565b60008484015250505050565b6000601f19601f8301169050919050565b60006123be8261235c565b6123c88185612367565b93506123d8818560208601612378565b6123e1816123a2565b840191505092915050565b6000602082019050818103600083015261240681846123b3565b905092915050565b6000819050919050565b6124218161240e565b811461242c57600080fd5b50565b60008135905061243e81612418565b92915050565b60006020828403121561245a57612459612297565b5b60006124688482850161242f565b91505092915050565b600073ffffffffffffffffffffffffffffffffffffffff82169050919050565b600061249c82612471565b9050919050565b6124ac81612491565b82525050565b60006020820190506124c760008301846124a3565b92915050565b6124d681612491565b81146124e157600080fd5b50565b6000813590506124f3816124cd565b92915050565b600080604083850312156125105761250f612297565b5b600061251e858286016124e4565b925050602061252f8582860161242f565b9150509250929050565b6125428161240e565b82525050565b600060208201905061255d6000830184612539565b92915050565b60008060006060848603121561257c5761257b612297565b5b600061258a868287016124e4565b935050602061259b868287016124e4565b92505060406125ac8682870161242f565b9150509250925092565b6000819050919050565b60006125db6125d66125d184612471565b6125b6565b612471565b9050919050565b60006125ed826125c0565b9050919050565b60006125ff826125e2565b9050919050565b61260f816125f4565b82525050565b600060208201905061262a6000830184612606565b92915050565b60006020828403121561264657612645612297565b5b6000612654848285016124e4565b91505092915050565b61266681612326565b811461267157600080fd5b50565b6000813590506126838161265d565b92915050565b600080604083850312156126a05761269f612297565b5b60006126ae858286016124e4565b92505060206126bf85828601612674565b9150509250929050565b600080fd5b600080fd5b7f4e487b7100000000000000000000000000000000000000000000000000000000600052604160045260246000fd5b61270b826123a2565b810181811067ffffffffffffffff8211171561272a576127296126d3565b5b80604052505050565b600061273d61228d565b90506127498282612702565b919050565b600067ffffffffffffffff821115612769576127686126d3565b5b612772826123a2565b9050602081019050919050565b82818337600083830152505050565b60006127a161279c8461274e565b612733565b9050828152602081018484840111156127bd576127bc6126ce565b5b6127c884828561277f565b509392505050565b600082601f8301126127e5576127e46126c9565b5b81356127f584826020860161278e565b91505092915050565b6000806000806080858703121561281857612817612297565b5b6000612826878288016124e4565b9450506020612837878288016124e4565b93505060406128488782880161242f565b925050606085013567ffffffffffffffff8111156128695761286861229c565b5b612875878288016127d0565b91505092959194509250565b600067ffffffffffffffff82111561289c5761289b6126d3565b5b6128a5826123a2565b9050602081019050919050565b60006128c56128c084612881565b612733565b9050828152602081018484840111156128e1576128e06126ce565b5b6128ec84828561277f565b509392505050565b600082601f830112612909576129086126c9565b5b81356129198482602086016128b2565b91505092915050565b6000806040838503121561293957612938612297565b5b6000612947858286016124e4565b925050602083013567ffffffffffffffff8111156129685761296761229c565b5b612974858286016128f4565b9150509250929050565b6000806040838503121561299557612994612297565b5b60006129a3858286016124e4565b92505060206129b4858286016124e4565b9150509250929050565b7f4e487b7100000000000000000000000000000000000000000000000000000000600052602260045260246000fd5b60006002820490506001821680612a0557607f821691505b602082108103612a1857612a176129be565b5b50919050565b7f4552433732313a20617070726f76616c20746f2063757272656e74206f776e6560008201527f7200000000000000000000000000000000000000000000000000000000000000602082015250565b6000612a7a602183612367565b9150612a8582612a1e565b604082019050919050565b60006020820190508181036000830152612aa981612a6d565b9050919050565b7f4552433732313a20617070726f76652063616c6c6572206973206e6f7420746f60008201527f6b656e206f776e6572206e6f7220617070726f76656420666f7220616c6c0000602082015250565b6000612b0c603e83612367565b9150612b1782612ab0565b604082019050919050565b60006020820190508181036000830152612b3b81612aff565b9050919050565b7f4552433732313a2063616c6c6572206973206e6f7420746f6b656e206f776e6560008201527f72206e6f7220617070726f766564000000000000000000000000000000000000602082015250565b6000612b9e602e83612367565b9150612ba982612b42565b604082019050919050565b60006020820190508181036000830152612bcd81612b91565b9050919050565b7f455243373231456e756d657261626c653a206f776e657220696e646578206f7560008201527f74206f6620626f756e6473000000000000000000000000000000000000000000602082015250565b6000612c30602b83612367565b9150612c3b82612bd4565b604082019050919050565b60006020820190508181036000830152612c5f81612c23565b9050919050565b7f455243373231456e756d657261626c653a20676c6f62616c20696e646578206f60008201527f7574206f6620626f756e64730000000000000000000000000000000000000000602082015250565b6000612cc2602c83612367565b9150612ccd82612c66565b604082019050919050565b60006020820190508181036000830152612cf181612cb5565b9050919050565b7f4e487b7100000000000000000000000000000000000000000000000000000000600052603260045260246000fd5b7f4552433732313a20696e76616c696420746f6b656e2049440000000000000000600082015250565b6000612d5d601883612367565b9150612d6882612d27565b602082019050919050565b60006020820190508181036000830152612d8c81612d50565b9050919050565b7f4552433732313a2061646472657373207a65726f206973206e6f74206120766160008201527f6c6964206f776e65720000000000000000000000000000000000000000000000602082015250565b6000612def602983612367565b9150612dfa82612d93565b604082019050919050565b60006020820190508181036000830152612e1e81612de2565b9050919050565b6000819050919050565b6000612e4a612e45612e4084612e25565b6125b6565b61240e565b9050919050565b612e5a81612e2f565b82525050565b6000606082019050612e7560008301866124a3565b612e8260208301856124a3565b612e8f6040830184612e51565b949350505050565b600081519050612ea68161265d565b92915050565b600060208284031215612ec257612ec1612297565b5b6000612ed084828501612e97565b91505092915050565b7f4661696c656420746f2070726f63657373207061796d656e7421000000000000600082015250565b6000612f0f601a83612367565b9150612f1a82612ed9565b602082019050919050565b60006020820190508181036000830152612f3e81612f02565b9050919050565b600081905092915050565b7f68747470733a2f2f676174657761792e70696e6174612e636c6f75642f69706660008201527f732f516d59446d38427a796534524d53376839485576314b6f7570616a71586360208201527f73664b5557774d6547767343335a6b412f6567676f3030000000000000000000604082015250565b6000612fd2605783612f45565b9150612fdd82612f50565b605782019050919050565b6000612ff38261235c565b612ffd8185612f45565b935061300d818560208601612378565b80840191505092915050565b7f2e6a736f6e000000000000000000000000000000000000000000000000000000600082015250565b600061304f600583612f45565b915061305a82613019565b600582019050919050565b600061307082612fc5565b915061307c8284612fe8565b915061308782613042565b915081905092915050565b7f4552433732314d657461646174613a2055524920717565727920666f72206e6f60008201527f6e6578697374656e7420746f6b656e0000000000000000000000000000000000602082015250565b60006130ee602f83612367565b91506130f982613092565b604082019050919050565b6000602082019050818103600083015261311d816130e1565b9050919050565b7f4f776e61626c653a206e6577206f776e657220697320746865207a65726f206160008201527f6464726573730000000000000000000000000000000000000000000000000000602082015250565b6000613180602683612367565b915061318b82613124565b604082019050919050565b600060208201905081810360008301526131af81613173565b9050919050565b7f4552433732313a207472616e736665722066726f6d20696e636f72726563742060008201527f6f776e6572000000000000000000000000000000000000000000000000000000602082015250565b6000613212602583612367565b915061321d826131b6565b604082019050919050565b6000602082019050818103600083015261324181613205565b9050919050565b7f4552433732313a207472616e7366657220746f20746865207a65726f2061646460008201527f7265737300000000000000000000000000000000000000000000000000000000602082015250565b60006132a4602483612367565b91506132af82613248565b604082019050919050565b600060208201905081810360008301526132d381613297565b9050919050565b7f4e487b7100000000000000000000000000000000000000000000000000000000600052601160045260246000fd5b60006133148261240e565b915061331f8361240e565b9250828203905081811115613337576133366132da565b5b92915050565b60006133488261240e565b91506133538361240e565b925082820190508082111561336b5761336a6132da565b5b92915050565b7f4f776e61626c653a2063616c6c6572206973206e6f7420746865206f776e6572600082015250565b60006133a7602083612367565b91506133b282613371565b602082019050919050565b600060208201905081810360008301526133d68161339a565b9050919050565b60006133e88261240e565b91507fffffffffffffffffffffffffffffffffffffffffffffffffffffffffffffffff820361341a576134196132da565b5b600182019050919050565b7f4e487b7100000000000000000000000000000000000000000000000000000000600052601260045260246000fd5b600061345f8261240e565b915061346a8361240e565b92508261347a57613479613425565b5b828204905092915050565b60006134908261240e565b915061349b8361240e565b9250826134ab576134aa613425565b5b828206905092915050565b7f45524337323155524953746f726167653a2055524920736574206f66206e6f6e60008201527f6578697374656e7420746f6b656e000000000000000000000000000000000000602082015250565b6000613512602e83612367565b915061351d826134b6565b604082019050919050565b6000602082019050818103600083015261354181613505565b9050919050565b60008190508160005260206000209050919050565b60006020601f8301049050919050565b600082821b905092915050565b6000600883026135aa7fffffffffffffffffffffffffffffffffffffffffffffffffffffffffffffffff8261356d565b6135b4868361356d565b95508019841693508086168417925050509392505050565b60006135e76135e26135dd8461240e565b6125b6565b61240e565b9050919050565b6000819050919050565b613601836135cc565b61361561360d826135ee565b84845461357a565b825550505050565b600090565b61362a61361d565b6136358184846135f8565b505050565b5b818110156136595761364e600082613622565b60018101905061363b565b5050565b601f82111561369e5761366f81613548565b6136788461355d565b81016020851015613687578190505b61369b6136938561355d565b83018261363a565b50505b505050565b600082821c905092915050565b60006136c1600019846008026136a3565b1980831691505092915050565b60006136da83836136b0565b9150826002028217905092915050565b6136f38261235c565b67ffffffffffffffff81111561370c5761370b6126d3565b5b61371682546129ed565b61372182828561365d565b600060209050601f8311600181146137545760008415613742578287015190505b61374c85826136ce565b8655506137b4565b601f19841661376286613548565b60005b8281101561378a57848901518255600182019150602085019450602081019050613765565b868310156137a757848901516137a3601f8916826136b0565b8355505b6001600288020188555050505b505050505050565b7f4552433732313a20617070726f766520746f2063616c6c657200000000000000600082015250565b60006137f2601983612367565b91506137fd826137bc565b602082019050919050565b60006020820190508181036000830152613821816137e5565b9050919050565b7f4552433732313a207472616e7366657220746f206e6f6e20455243373231526560008201527f63656976657220696d706c656d656e7465720000000000000000000000000000602082015250565b6000613884603283612367565b915061388f82613828565b604082019050919050565b600060208201905081810360008301526138b381613877565b9050919050565b60006138c68285612fe8565b91506138d28284612fe8565b91508190509392505050565b600081519050919050565b600082825260208201905092915050565b6000613905826138de565b61390f81856138e9565b935061391f818560208601612378565b613928816123a2565b840191505092915050565b600060808201905061394860008301876124a3565b61395560208301866124a3565b6139626040830185612539565b818103606083015261397481846138fa565b905095945050505050565b60008151905061398e816122cd565b92915050565b6000602082840312156139aa576139a9612297565b5b60006139b88482850161397f565b91505092915050565b7f4552433732313a206d696e7420746f20746865207a65726f2061646472657373600082015250565b60006139f7602083612367565b9150613a02826139c1565b602082019050919050565b60006020820190508181036000830152613a26816139ea565b9050919050565b7f4552433732313a20746f6b656e20616c7265616479206d696e74656400000000600082015250565b6000613a63601c83612367565b9150613a6e82613a2d565b602082019050919050565b60006020820190508181036000830152613a9281613a56565b9050919050565b7f4e487b7100000000000000000000000000000000000000000000000000000000600052603160045260246000fdfea2646970667358221220450d4823cac03e77b2dafa4f09ffd3c843d9eda4f4b68f162173ce2f8c4fd5e764736f6c63430008100033",
  "immutableReferences": {},
  "source": "// SPDX-License-Identifier: MIT\npragma solidity ^0.8.4;\n\nimport \"@openzeppelin/contracts/token/ERC20/ERC20.sol\";\nimport \"@openzeppelin/contracts/token/ERC721/ERC721.sol\";\nimport \"@openzeppelin/contracts/token/ERC721/extensions/ERC721Enumerable.sol\";\nimport \"@openzeppelin/contracts/token/ERC721/extensions/ERC721URIStorage.sol\";\nimport \"@openzeppelin/contracts/access/Ownable.sol\";\nimport \"@openzeppelin/contracts/utils/Counters.sol\";\nimport \"@openzeppelin/contracts/utils/Strings.sol\";\n\ncontract EggNFT is ERC721, ERC721Enumerable, ERC721URIStorage, Ownable {\n    using Counters for Counters.Counter;\n\n    Counters.Counter private _tokenIdCounter;\n    \n    ERC20 public paymentCurrency;\n\n    constructor(ERC20 _paymentCurrency) ERC721(\"Egg NFT\", \"EGGS\") {\n      require(address(_paymentCurrency) != address(0), \"Token address can't be address zero\");\n      paymentCurrency = _paymentCurrency;\n    }\n\n    function safeMint(address to, string memory uri) public onlyOwner {\n        uint256 tokenId = _tokenIdCounter.current();\n        _tokenIdCounter.increment();\n        _safeMint(to, tokenId);\n        _setTokenURI(tokenId, uri);\n    }\n    \n    function buyEgg() public {\n        require(paymentCurrency.transferFrom(msg.sender, address(this), 10 ether), \"Failed to process payment!\");\n        uint256 tokenId = _tokenIdCounter.current();\n        _tokenIdCounter.increment();\n        _safeMint(msg.sender, tokenId);\n        _setTokenURI(tokenId, \n            string(\n                abi.encodePacked(\n                    \"https://gateway.pinata.cloud/ipfs/QmYDm8Bzye4RMS7h9HUv1KoupajqXcsfKUWwMeGvsC3ZkA/eggo00\",\n                    Strings.toString(tokenId),\n                    \".json\"\n                )\n            )\n        );\n    }\n\n    // The following functions are overrides required by Solidity.\n\n    function _beforeTokenTransfer(address from, address to, uint256 tokenId)\n        internal\n        override(ERC721, ERC721Enumerable)\n    {\n        super._beforeTokenTransfer(from, to, tokenId);\n    }\n\n    function _burn(uint256 tokenId) internal override(ERC721, ERC721URIStorage) {\n        super._burn(tokenId);\n    }\n\n    function tokenURI(uint256 tokenId)\n        public\n        view\n        override(ERC721, ERC721URIStorage)\n        returns (string memory)\n    {\n        require(\n            _exists(tokenId),\n            \"ERC721Metadata: URI query for nonexistent token\"\n        );\n        return super.tokenURI(tokenId);\n    }\n\n    function supportsInterface(bytes4 interfaceId)\n        public\n        view\n        override(ERC721, ERC721Enumerable)\n        returns (bool)\n    {\n        return super.supportsInterface(interfaceId);\n    }\n}",
  "sourcePath": "/home/menezes/Projects/egg-gacha-contracts/contracts/Eggs.sol",
  "compiler": {
    "name": "solc",
    "version": "0.8.16+commit.07a7930e.Emscripten.clang"
  },
  "schemaVersion": "3.4.10",
  "updatedAt": "2022-10-04T00:10:35.757Z",
  "devdoc": {
    "kind": "dev",
    "methods": {
      "approve(address,uint256)": {
        "details": "See {IERC721-approve}."
      },
      "balanceOf(address)": {
        "details": "See {IERC721-balanceOf}."
      },
      "getApproved(uint256)": {
        "details": "See {IERC721-getApproved}."
      },
      "isApprovedForAll(address,address)": {
        "details": "See {IERC721-isApprovedForAll}."
      },
      "name()": {
        "details": "See {IERC721Metadata-name}."
      },
      "owner()": {
        "details": "Returns the address of the current owner."
      },
      "ownerOf(uint256)": {
        "details": "See {IERC721-ownerOf}."
      },
      "renounceOwnership()": {
        "details": "Leaves the contract without owner. It will not be possible to call `onlyOwner` functions anymore. Can only be called by the current owner. NOTE: Renouncing ownership will leave the contract without an owner, thereby removing any functionality that is only available to the owner."
      },
      "safeTransferFrom(address,address,uint256)": {
        "details": "See {IERC721-safeTransferFrom}."
      },
      "safeTransferFrom(address,address,uint256,bytes)": {
        "details": "See {IERC721-safeTransferFrom}."
      },
      "setApprovalForAll(address,bool)": {
        "details": "See {IERC721-setApprovalForAll}."
      },
      "symbol()": {
        "details": "See {IERC721Metadata-symbol}."
      },
      "tokenByIndex(uint256)": {
        "details": "See {IERC721Enumerable-tokenByIndex}."
      },
      "tokenOfOwnerByIndex(address,uint256)": {
        "details": "See {IERC721Enumerable-tokenOfOwnerByIndex}."
      },
      "totalSupply()": {
        "details": "See {IERC721Enumerable-totalSupply}."
      },
      "transferFrom(address,address,uint256)": {
        "details": "See {IERC721-transferFrom}."
      },
      "transferOwnership(address)": {
        "details": "Transfers ownership of the contract to a new account (`newOwner`). Can only be called by the current owner."
      }
    },
    "version": 1
  },
  "userdoc": {
    "kind": "user",
    "methods": {},
    "version": 1
  }
}