{
  "contractName": "Faucet",
  "abi": [
    {
      "inputs": [
        {
          "internalType": "contract ERC20",
          "name": "_token",
          "type": "address"
        }
      ],
      "stateMutability": "nonpayable",
      "type": "constructor"
    },
    {
      "anonymous": false,
      "inputs": [
        {
          "indexed": true,
          "internalType": "address",
          "name": "previousOwner",
          "type": "address"
        },
        {
          "indexed": true,
          "internalType": "address",
          "name": "newOwner",
          "type": "address"
        }
      ],
      "name": "OwnershipTransferred",
      "type": "event"
    },
    {
      "anonymous": false,
      "inputs": [
        {
          "indexed": true,
          "internalType": "address",
          "name": "claimer",
          "type": "address"
        },
        {
          "indexed": false,
          "internalType": "uint256",
          "name": "claimTime",
          "type": "uint256"
        }
      ],
      "name": "tokenAirdropped",
      "type": "event"
    },
    {
      "inputs": [],
      "name": "owner",
      "outputs": [
        {
          "internalType": "address",
          "name": "",
          "type": "address"
        }
      ],
      "stateMutability": "view",
      "type": "function"
    },
    {
      "inputs": [],
      "name": "renounceOwnership",
      "outputs": [],
      "stateMutability": "nonpayable",
      "type": "function"
    },
    {
      "inputs": [],
      "name": "token",
      "outputs": [
        {
          "internalType": "contract ERC20",
          "name": "",
          "type": "address"
        }
      ],
      "stateMutability": "view",
      "type": "function"
    },
    {
      "inputs": [
        {
          "internalType": "address",
          "name": "newOwner",
          "type": "address"
        }
      ],
      "name": "transferOwnership",
      "outputs": [],
      "stateMutability": "nonpayable",
      "type": "function"
    },
    {
      "inputs": [
        {
          "internalType": "uint256",
          "name": "amount_",
          "type": "uint256"
        }
      ],
      "name": "depositToken",
      "outputs": [],
      "stateMutability": "nonpayable",
      "type": "function"
    },
    {
      "inputs": [],
      "name": "claimTokens",
      "outputs": [],
      "stateMutability": "nonpayable",
      "type": "function"
    }
  ],
  "bytecode": "0x60806040523480156200001157600080fd5b5060405162000f9e38038062000f9e83398181016040528101906200003791906200025b565b620000576200004b6200011160201b60201c565b6200011960201b60201c565b600073ffffffffffffffffffffffffffffffffffffffff168173ffffffffffffffffffffffffffffffffffffffff1603620000c9576040517f08c379a0000000000000000000000000000000000000000000000000000000008152600401620000c09062000314565b60405180910390fd5b80600160006101000a81548173ffffffffffffffffffffffffffffffffffffffff021916908373ffffffffffffffffffffffffffffffffffffffff1602179055505062000336565b600033905090565b60008060009054906101000a900473ffffffffffffffffffffffffffffffffffffffff169050816000806101000a81548173ffffffffffffffffffffffffffffffffffffffff021916908373ffffffffffffffffffffffffffffffffffffffff1602179055508173ffffffffffffffffffffffffffffffffffffffff168173ffffffffffffffffffffffffffffffffffffffff167f8be0079c531659141344cd1fd0a4f28419497f9722a3daafe3b4186f6b6457e060405160405180910390a35050565b600080fd5b600073ffffffffffffffffffffffffffffffffffffffff82169050919050565b60006200020f82620001e2565b9050919050565b6000620002238262000202565b9050919050565b620002358162000216565b81146200024157600080fd5b50565b60008151905062000255816200022a565b92915050565b600060208284031215620002745762000273620001dd565b5b6000620002848482850162000244565b91505092915050565b600082825260208201905092915050565b7f546f6b656e20616464726573732063616e27742062652061646472657373207a60008201527f65726f0000000000000000000000000000000000000000000000000000000000602082015250565b6000620002fc6023836200028d565b915062000309826200029e565b604082019050919050565b600060208201905081810360008301526200032f81620002ed565b9050919050565b610c5880620003466000396000f3fe608060405234801561001057600080fd5b50600436106100625760003560e01c806348c54b9d146100675780636215be7714610071578063715018a61461008d5780638da5cb5b14610097578063f2fde38b146100b5578063fc0c546a146100d1575b600080fd5b61006f6100ef565b005b61008b600480360381019061008691906106e6565b61038f565b005b610095610473565b005b61009f610487565b6040516100ac9190610754565b60405180910390f35b6100cf60048036038101906100ca919061079b565b6104b0565b005b6100d9610533565b6040516100e69190610827565b60405180910390f35b62015180600260003373ffffffffffffffffffffffffffffffffffffffff1673ffffffffffffffffffffffffffffffffffffffff168152602001908152602001600020600101546101409190610871565b610148610559565b11610188576040517f08c379a000000000000000000000000000000000000000000000000000000000815260040161017f90610902565b60405180910390fd5b600060405180604001604052803373ffffffffffffffffffffffffffffffffffffffff1681526020016101b9610559565b815250905080600260003373ffffffffffffffffffffffffffffffffffffffff1673ffffffffffffffffffffffffffffffffffffffff16815260200190815260200160002060008201518160000160006101000a81548173ffffffffffffffffffffffffffffffffffffffff021916908373ffffffffffffffffffffffffffffffffffffffff16021790555060208201518160010155905050600160009054906101000a900473ffffffffffffffffffffffffffffffffffffffff1673ffffffffffffffffffffffffffffffffffffffff1663a9059cbb336802b5e3af16b18800006040518363ffffffff1660e01b81526004016102b892919061095d565b6020604051808303816000875af11580156102d7573d6000803e3d6000fd5b505050506040513d601f19601f820116820180604052508101906102fb91906109be565b61033a576040517f08c379a000000000000000000000000000000000000000000000000000000000815260040161033190610a37565b60405180910390fd5b3373ffffffffffffffffffffffffffffffffffffffff167f910de9fea07d943818a6b89b3fda75573eea6b9b3a96e4a77ca02b05b62017be82602001516040516103849190610a66565b60405180910390a250565b600160009054906101000a900473ffffffffffffffffffffffffffffffffffffffff1673ffffffffffffffffffffffffffffffffffffffff166323b872dd3330846040518463ffffffff1660e01b81526004016103ee93929190610a81565b6020604051808303816000875af115801561040d573d6000803e3d6000fd5b505050506040513d601f19601f8201168201806040525081019061043191906109be565b610470576040517f08c379a000000000000000000000000000000000000000000000000000000000815260040161046790610b04565b60405180910390fd5b50565b61047b610561565b61048560006105df565b565b60008060009054906101000a900473ffffffffffffffffffffffffffffffffffffffff16905090565b6104b8610561565b600073ffffffffffffffffffffffffffffffffffffffff168173ffffffffffffffffffffffffffffffffffffffff1603610527576040517f08c379a000000000000000000000000000000000000000000000000000000000815260040161051e90610b96565b60405180910390fd5b610530816105df565b50565b600160009054906101000a900473ffffffffffffffffffffffffffffffffffffffff1681565b600042905090565b6105696106a3565b73ffffffffffffffffffffffffffffffffffffffff16610587610487565b73ffffffffffffffffffffffffffffffffffffffff16146105dd576040517f08c379a00000000000000000000000000000000000000000000000000000000081526004016105d490610c02565b60405180910390fd5b565b60008060009054906101000a900473ffffffffffffffffffffffffffffffffffffffff169050816000806101000a81548173ffffffffffffffffffffffffffffffffffffffff021916908373ffffffffffffffffffffffffffffffffffffffff1602179055508173ffffffffffffffffffffffffffffffffffffffff168173ffffffffffffffffffffffffffffffffffffffff167f8be0079c531659141344cd1fd0a4f28419497f9722a3daafe3b4186f6b6457e060405160405180910390a35050565b600033905090565b600080fd5b6000819050919050565b6106c3816106b0565b81146106ce57600080fd5b50565b6000813590506106e0816106ba565b92915050565b6000602082840312156106fc576106fb6106ab565b5b600061070a848285016106d1565b91505092915050565b600073ffffffffffffffffffffffffffffffffffffffff82169050919050565b600061073e82610713565b9050919050565b61074e81610733565b82525050565b60006020820190506107696000830184610745565b92915050565b61077881610733565b811461078357600080fd5b50565b6000813590506107958161076f565b92915050565b6000602082840312156107b1576107b06106ab565b5b60006107bf84828501610786565b91505092915050565b6000819050919050565b60006107ed6107e86107e384610713565b6107c8565b610713565b9050919050565b60006107ff826107d2565b9050919050565b6000610811826107f4565b9050919050565b61082181610806565b82525050565b600060208201905061083c6000830184610818565b92915050565b7f4e487b7100000000000000000000000000000000000000000000000000000000600052601160045260246000fd5b600061087c826106b0565b9150610887836106b0565b925082820190508082111561089f5761089e610842565b5b92915050565b600082825260208201905092915050565b7f5573657220636c61696d6564206c657373207468616e2032346872732061676f600082015250565b60006108ec6020836108a5565b91506108f7826108b6565b602082019050919050565b6000602082019050818103600083015261091b816108df565b9050919050565b6000819050919050565b600061094761094261093d84610922565b6107c8565b6106b0565b9050919050565b6109578161092c565b82525050565b60006040820190506109726000830185610745565b61097f602083018461094e565b9392505050565b60008115159050919050565b61099b81610986565b81146109a657600080fd5b50565b6000815190506109b881610992565b92915050565b6000602082840312156109d4576109d36106ab565b5b60006109e2848285016109a9565b91505092915050565b7f546f6b656e205472616e73666572204661696c65642100000000000000000000600082015250565b6000610a216016836108a5565b9150610a2c826109eb565b602082019050919050565b60006020820190508181036000830152610a5081610a14565b9050919050565b610a60816106b0565b82525050565b6000602082019050610a7b6000830184610a57565b92915050565b6000606082019050610a966000830186610745565b610aa36020830185610745565b610ab06040830184610a57565b949350505050565b7f5472616e73616374696f6e204661696c65642100000000000000000000000000600082015250565b6000610aee6013836108a5565b9150610af982610ab8565b602082019050919050565b60006020820190508181036000830152610b1d81610ae1565b9050919050565b7f4f776e61626c653a206e6577206f776e657220697320746865207a65726f206160008201527f6464726573730000000000000000000000000000000000000000000000000000602082015250565b6000610b806026836108a5565b9150610b8b82610b24565b604082019050919050565b60006020820190508181036000830152610baf81610b73565b9050919050565b7f4f776e61626c653a2063616c6c6572206973206e6f7420746865206f776e6572600082015250565b6000610bec6020836108a5565b9150610bf782610bb6565b602082019050919050565b60006020820190508181036000830152610c1b81610bdf565b905091905056fea2646970667358221220854c61e8cc0de0339c2f435ba7e6f80978b715e1e94893724e15e9839e36db6364736f6c63430008100033",
  "immutableReferences": {},
  "source": "// SPDX-License-Identifier: MIT\n\npragma solidity ^0.8.4;\n\nimport \"@openzeppelin/contracts/token/ERC20/ERC20.sol\";\nimport \"@openzeppelin/contracts/access/Ownable.sol\";\n\ncontract Faucet is Ownable {\n\n    ERC20 public token;\n\n    struct Airdrop {\n        address claimer;\n        uint256 lastTimeClaimed;\n    }\n\n    event tokenAirdropped(address indexed claimer, uint256 claimTime);\n    mapping ( address => Airdrop ) private tokensDroped;\n\n\n    constructor(ERC20 _token) {\n        require(address(_token) != address(0), \"Token address can't be address zero\");\n        token = _token;\n    }\n\n    function depositToken(uint256 amount_) public {\n        require(token.transferFrom(msg.sender, address(this), amount_), \"Transaction Failed!\");\n    }\n\n    function claimTokens() public {\n        require( currentTime() > tokensDroped[msg.sender].lastTimeClaimed + 86400, 'User claimed less than 24hrs ago');\n        \n        Airdrop memory _airdrop = Airdrop({\n            claimer: msg.sender, \n            lastTimeClaimed: currentTime()\n        });\n\n        tokensDroped[msg.sender] = _airdrop;\n\n        require(token.transfer(msg.sender, 50 ether), \"Token Transfer Failed!\");\n        emit tokenAirdropped(msg.sender, _airdrop.lastTimeClaimed);\n    }\n\n    function currentTime() private view returns (uint256) {\n        return block.timestamp;\n    }\n}",
  "sourcePath": "/home/menezes/Projects/egg-gacha-contracts/contracts/TokenFaucet.sol",
  "compiler": {
    "name": "solc",
    "version": "0.8.16+commit.07a7930e.Emscripten.clang"
  },
  "schemaVersion": "3.4.10",
  "updatedAt": "2022-10-04T00:10:35.777Z",
  "devdoc": {
    "kind": "dev",
    "methods": {
      "owner()": {
        "details": "Returns the address of the current owner."
      },
      "renounceOwnership()": {
        "details": "Leaves the contract without owner. It will not be possible to call `onlyOwner` functions anymore. Can only be called by the current owner. NOTE: Renouncing ownership will leave the contract without an owner, thereby removing any functionality that is only available to the owner."
      },
      "transferOwnership(address)": {
        "details": "Transfers ownership of the contract to a new account (`newOwner`). Can only be called by the current owner."
      }
    },
    "version": 1
  },
  "userdoc": {
    "kind": "user",
    "methods": {},
    "version": 1
  }
}